{
  "_format": "hh-sol-artifact-1",
  "contractName": "GiveMeCoffee",
  "sourceName": "contracts/GiveMeCoffee.sol",
  "abi": [
    {
      "inputs": [],
      "stateMutability": "nonpayable",
      "type": "constructor"
    },
    {
      "anonymous": false,
      "inputs": [
        {
          "indexed": true,
          "internalType": "address",
          "name": "donor",
          "type": "address"
        },
        {
          "indexed": false,
          "internalType": "uint256",
          "name": "amount",
          "type": "uint256"
        },
        {
          "indexed": false,
          "internalType": "string",
          "name": "message",
          "type": "string"
        },
        {
          "indexed": false,
          "internalType": "uint256",
          "name": "timestamp",
          "type": "uint256"
        }
      ],
      "name": "DonationReceived",
      "type": "event"
    },
    {
      "anonymous": false,
      "inputs": [
        {
          "indexed": true,
          "internalType": "address",
          "name": "recipient",
          "type": "address"
        },
        {
          "indexed": false,
          "internalType": "uint256",
          "name": "amount",
          "type": "uint256"
        },
        {
          "indexed": false,
          "internalType": "uint256",
          "name": "timestamp",
          "type": "uint256"
        }
      ],
      "name": "WithdrawalMade",
      "type": "event"
    },
    {
      "inputs": [
        {
          "internalType": "string",
          "name": "_message",
          "type": "string"
        }
      ],
      "name": "donate",
      "outputs": [],
      "stateMutability": "payable",
      "type": "function"
    },
    {
      "inputs": [
        {
          "internalType": "uint256",
          "name": "",
          "type": "uint256"
        }
      ],
      "name": "donations",
      "outputs": [
        {
          "internalType": "address",
          "name": "donor",
          "type": "address"
        },
        {
          "internalType": "uint256",
          "name": "amount",
          "type": "uint256"
        },
        {
          "internalType": "string",
          "name": "message",
          "type": "string"
        },
        {
          "internalType": "uint256",
          "name": "timestamp",
          "type": "uint256"
        }
      ],
      "stateMutability": "view",
      "type": "function"
    },
    {
      "inputs": [],
      "name": "getBalance",
      "outputs": [
        {
          "internalType": "uint256",
          "name": "",
          "type": "uint256"
        }
      ],
      "stateMutability": "view",
      "type": "function"
    },
    {
      "inputs": [
        {
          "internalType": "uint256",
          "name": "index",
          "type": "uint256"
        }
      ],
      "name": "getDonation",
      "outputs": [
        {
          "internalType": "address",
          "name": "donor",
          "type": "address"
        },
        {
          "internalType": "uint256",
          "name": "amount",
          "type": "uint256"
        },
        {
          "internalType": "string",
          "name": "message",
          "type": "string"
        },
        {
          "internalType": "uint256",
          "name": "timestamp",
          "type": "uint256"
        }
      ],
      "stateMutability": "view",
      "type": "function"
    },
    {
      "inputs": [],
      "name": "getDonationCount",
      "outputs": [
        {
          "internalType": "uint256",
          "name": "",
          "type": "uint256"
        }
      ],
      "stateMutability": "view",
      "type": "function"
    },
    {
      "inputs": [
        {
          "internalType": "uint256",
          "name": "count",
          "type": "uint256"
        }
      ],
      "name": "getRecentDonations",
      "outputs": [
        {
          "internalType": "address[]",
          "name": "donors",
          "type": "address[]"
        },
        {
          "internalType": "uint256[]",
          "name": "amounts",
          "type": "uint256[]"
        },
        {
          "internalType": "string[]",
          "name": "messages",
          "type": "string[]"
        },
        {
          "internalType": "uint256[]",
          "name": "timestamps",
          "type": "uint256[]"
        }
      ],
      "stateMutability": "view",
      "type": "function"
    },
    {
      "inputs": [],
      "name": "owner",
      "outputs": [
        {
          "internalType": "address",
          "name": "",
          "type": "address"
        }
      ],
      "stateMutability": "view",
      "type": "function"
    },
    {
      "inputs": [],
      "name": "totalDonations",
      "outputs": [
        {
          "internalType": "uint256",
          "name": "",
          "type": "uint256"
        }
      ],
      "stateMutability": "view",
      "type": "function"
    },
    {
      "inputs": [],
      "name": "withdraw",
      "outputs": [],
      "stateMutability": "nonpayable",
      "type": "function"
    },
    {
      "stateMutability": "payable",
      "type": "receive"
    }
  ],
  "bytecode": "0x6080604052348015600f57600080fd5b50336000806101000a81548173ffffffffffffffffffffffffffffffffffffffff021916908373ffffffffffffffffffffffffffffffffffffffff160217905550611c528061005f6000396000f3fe6080604052600436106100895760003560e01c8063b5aebc8011610059578063b5aebc80146102d2578063de2ed893146102ee578063e55a62a814610319578063ef07a81f14610344578063f8626af81461038457610220565b80623062ca1461022557806312065fe0146102655780633ccfd60b146102905780638da5cb5b146102a757610220565b3661022057600034116100d1576040517f08c379a00000000000000000000000000000000000000000000000000000000081526004016100c890610f47565b60405180910390fd5b34600160008282546100e39190610fa0565b92505081905550600260405180608001604052803373ffffffffffffffffffffffffffffffffffffffff16815260200134815260200160405180602001604052806000815250815260200142815250908060018154018082558091505060019003906000526020600020906004020160009091909190915060008201518160000160006101000a81548173ffffffffffffffffffffffffffffffffffffffff021916908373ffffffffffffffffffffffffffffffffffffffff1602179055506020820151816001015560408201518160020190816101c1919061121a565b506060820151816003015550503373ffffffffffffffffffffffffffffffffffffffff167f2018df2fd138b2916834021281dc1543d08a39c60f392b0bac9d5d60030189f93442604051610216929190611321565b60405180910390a2005b600080fd5b34801561023157600080fd5b5061024c6004803603810190610247919061139d565b6103c4565b60405161025c94939291906116bf565b60405180910390f35b34801561027157600080fd5b5061027a610887565b6040516102879190611720565b60405180910390f35b34801561029c57600080fd5b506102a561088f565b005b3480156102b357600080fd5b506102bc610aa6565b6040516102c9919061174a565b60405180910390f35b6102ec60048036038101906102e7919061186b565b610aca565b005b3480156102fa57600080fd5b50610303610c50565b6040516103109190611720565b60405180910390f35b34801561032557600080fd5b5061032e610c56565b60405161033b9190611720565b60405180910390f35b34801561035057600080fd5b5061036b6004803603810190610366919061139d565b610c63565b60405161037b94939291906118ed565b60405180910390f35b34801561039057600080fd5b506103ab60048036038101906103a6919061139d565b610e02565b6040516103bb94939291906118ed565b60405180910390f35b6060806060806000600280549050905060008187116103e357866103e5565b815b90506000810361052b57600067ffffffffffffffff81111561040a57610409610fdf565b5b6040519080825280602002602001820160405280156104385781602001602082028036833780820191505090505b50600067ffffffffffffffff81111561045457610453610fdf565b5b6040519080825280602002602001820160405280156104825781602001602082028036833780820191505090505b50600067ffffffffffffffff81111561049e5761049d610fdf565b5b6040519080825280602002602001820160405280156104d157816020015b60608152602001906001900390816104bc5790505b50600067ffffffffffffffff8111156104ed576104ec610fdf565b5b60405190808252806020026020018201604052801561051b5781602001602082028036833780820191505090505b5095509550955095505050610880565b8067ffffffffffffffff81111561054557610544610fdf565b5b6040519080825280602002602001820160405280156105735781602001602082028036833780820191505090505b5095508067ffffffffffffffff8111156105905761058f610fdf565b5b6040519080825280602002602001820160405280156105be5781602001602082028036833780820191505090505b5094508067ffffffffffffffff8111156105db576105da610fdf565b5b60405190808252806020026020018201604052801561060e57816020015b60608152602001906001900390816105f95790505b5093508067ffffffffffffffff81111561062b5761062a610fdf565b5b6040519080825280602002602001820160405280156106595781602001602082028036833780820191505090505b50925060005b8181101561087c576000816001856106779190611939565b6106819190611939565b90506000600282815481106106995761069861196d565b5b90600052602060002090600402016040518060800160405290816000820160009054906101000a900473ffffffffffffffffffffffffffffffffffffffff1673ffffffffffffffffffffffffffffffffffffffff1673ffffffffffffffffffffffffffffffffffffffff168152602001600182015481526020016002820180546107229061103d565b80601f016020809104026020016040519081016040528092919081815260200182805461074e9061103d565b801561079b5780601f106107705761010080835404028352916020019161079b565b820191906000526020600020905b81548152906001019060200180831161077e57829003601f168201915b50505050508152602001600382015481525050905080600001518984815181106107c8576107c761196d565b5b602002602001019073ffffffffffffffffffffffffffffffffffffffff16908173ffffffffffffffffffffffffffffffffffffffff1681525050806020015188848151811061081a5761081961196d565b5b602002602001018181525050806040015187848151811061083e5761083d61196d565b5b602002602001018190525080606001518684815181106108615761086061196d565b5b6020026020010181815250505050808060010191505061065f565b5050505b9193509193565b600047905090565b60008054906101000a900473ffffffffffffffffffffffffffffffffffffffff1673ffffffffffffffffffffffffffffffffffffffff163373ffffffffffffffffffffffffffffffffffffffff161461091d576040517f08c379a000000000000000000000000000000000000000000000000000000000815260040161091490611a0e565b60405180910390fd5b600047905060008111610965576040517f08c379a000000000000000000000000000000000000000000000000000000000815260040161095c90611a7a565b60405180910390fd5b60008060009054906101000a900473ffffffffffffffffffffffffffffffffffffffff1673ffffffffffffffffffffffffffffffffffffffff16826040516109ac90611ac8565b60006040518083038185875af1925050503d80600081146109e9576040519150601f19603f3d011682016040523d82523d6000602084013e6109ee565b606091505b5050905080610a32576040517f08c379a0000000000000000000000000000000000000000000000000000000008152600401610a2990611b29565b60405180910390fd5b60008054906101000a900473ffffffffffffffffffffffffffffffffffffffff1673ffffffffffffffffffffffffffffffffffffffff167f2d4d49c3e017b8235c908cbaa83a2431a08f3b950712696ece2088964fd399f08342604051610a9a929190611b49565b60405180910390a25050565b60008054906101000a900473ffffffffffffffffffffffffffffffffffffffff1681565b60003411610b0d576040517f08c379a0000000000000000000000000000000000000000000000000000000008152600401610b0490610f47565b60405180910390fd5b3460016000828254610b1f9190610fa0565b92505081905550600260405180608001604052803373ffffffffffffffffffffffffffffffffffffffff16815260200134815260200183815260200142815250908060018154018082558091505060019003906000526020600020906004020160009091909190915060008201518160000160006101000a81548173ffffffffffffffffffffffffffffffffffffffff021916908373ffffffffffffffffffffffffffffffffffffffff160217905550602082015181600101556040820151816002019081610bee919061121a565b506060820151816003015550503373ffffffffffffffffffffffffffffffffffffffff167f2018df2fd138b2916834021281dc1543d08a39c60f392b0bac9d5d60030189f9348342604051610c4593929190611b72565b60405180910390a250565b60015481565b6000600280549050905090565b600080606060006002805490508510610cb1576040517f08c379a0000000000000000000000000000000000000000000000000000000008152600401610ca890611bfc565b60405180910390fd5b600060028681548110610cc757610cc661196d565b5b90600052602060002090600402016040518060800160405290816000820160009054906101000a900473ffffffffffffffffffffffffffffffffffffffff1673ffffffffffffffffffffffffffffffffffffffff1673ffffffffffffffffffffffffffffffffffffffff16815260200160018201548152602001600282018054610d509061103d565b80601f0160208091040260200160405190810160405280929190818152602001828054610d7c9061103d565b8015610dc95780601f10610d9e57610100808354040283529160200191610dc9565b820191906000526020600020905b815481529060010190602001808311610dac57829003601f168201915b50505050508152602001600382015481525050905080600001518160200151826040015183606001519450945094509450509193509193565b60028181548110610e1257600080fd5b90600052602060002090600402016000915090508060000160009054906101000a900473ffffffffffffffffffffffffffffffffffffffff1690806001015490806002018054610e619061103d565b80601f0160208091040260200160405190810160405280929190818152602001828054610e8d9061103d565b8015610eda5780601f10610eaf57610100808354040283529160200191610eda565b820191906000526020600020905b815481529060010190602001808311610ebd57829003601f168201915b5050505050908060030154905084565b600082825260208201905092915050565b7f446f6e6174696f6e206d7573742062652067726561746572207468616e203000600082015250565b6000610f31601f83610eea565b9150610f3c82610efb565b602082019050919050565b60006020820190508181036000830152610f6081610f24565b9050919050565b6000819050919050565b7f4e487b7100000000000000000000000000000000000000000000000000000000600052601160045260246000fd5b6000610fab82610f67565b9150610fb683610f67565b9250828201905080821115610fce57610fcd610f71565b5b92915050565b600081519050919050565b7f4e487b7100000000000000000000000000000000000000000000000000000000600052604160045260246000fd5b7f4e487b7100000000000000000000000000000000000000000000000000000000600052602260045260246000fd5b6000600282049050600182168061105557607f821691505b6020821081036110685761106761100e565b5b50919050565b60008190508160005260206000209050919050565b60006020601f8301049050919050565b600082821b905092915050565b6000600883026110d07fffffffffffffffffffffffffffffffffffffffffffffffffffffffffffffffff82611093565b6110da8683611093565b95508019841693508086168417925050509392505050565b6000819050919050565b600061111761111261110d84610f67565b6110f2565b610f67565b9050919050565b6000819050919050565b611131836110fc565b61114561113d8261111e565b8484546110a0565b825550505050565b600090565b61115a61114d565b611165818484611128565b505050565b5b818110156111895761117e600082611152565b60018101905061116b565b5050565b601f8211156111ce5761119f8161106e565b6111a884611083565b810160208510156111b7578190505b6111cb6111c385611083565b83018261116a565b50505b505050565b600082821c905092915050565b60006111f1600019846008026111d3565b1980831691505092915050565b600061120a83836111e0565b9150826002028217905092915050565b61122382610fd4565b67ffffffffffffffff81111561123c5761123b610fdf565b5b611246825461103d565b61125182828561118d565b600060209050601f8311600181146112845760008415611272578287015190505b61127c85826111fe565b8655506112e4565b601f1984166112928661106e565b60005b828110156112ba57848901518255600182019150602085019450602081019050611295565b868310156112d757848901516112d3601f8916826111e0565b8355505b6001600288020188555050505b505050505050565b6112f581610f67565b82525050565b50565b600061130b600083610eea565b9150611316826112fb565b600082019050919050565b600060608201905061133660008301856112ec565b8181036020830152611347816112fe565b905061135660408301846112ec565b9392505050565b6000604051905090565b600080fd5b600080fd5b61137a81610f67565b811461138557600080fd5b50565b60008135905061139781611371565b92915050565b6000602082840312156113b3576113b2611367565b5b60006113c184828501611388565b91505092915050565b600081519050919050565b600082825260208201905092915050565b6000819050602082019050919050565b600073ffffffffffffffffffffffffffffffffffffffff82169050919050565b6000611421826113f6565b9050919050565b61143181611416565b82525050565b60006114438383611428565b60208301905092915050565b6000602082019050919050565b6000611467826113ca565b61147181856113d5565b935061147c836113e6565b8060005b838110156114ad5781516114948882611437565b975061149f8361144f565b925050600181019050611480565b5085935050505092915050565b600081519050919050565b600082825260208201905092915050565b6000819050602082019050919050565b6114ef81610f67565b82525050565b600061150183836114e6565b60208301905092915050565b6000602082019050919050565b6000611525826114ba565b61152f81856114c5565b935061153a836114d6565b8060005b8381101561156b57815161155288826114f5565b975061155d8361150d565b92505060018101905061153e565b5085935050505092915050565b600081519050919050565b600082825260208201905092915050565b6000819050602082019050919050565b600082825260208201905092915050565b60005b838110156115d35780820151818401526020810190506115b8565b60008484015250505050565b6000601f19601f8301169050919050565b60006115fb82610fd4565b61160581856115a4565b93506116158185602086016115b5565b61161e816115df565b840191505092915050565b600061163583836115f0565b905092915050565b6000602082019050919050565b600061165582611578565b61165f8185611583565b93508360208202850161167185611594565b8060005b858110156116ad578484038952815161168e8582611629565b94506116998361163d565b925060208a01995050600181019050611675565b50829750879550505050505092915050565b600060808201905081810360008301526116d9818761145c565b905081810360208301526116ed818661151a565b90508181036040830152611701818561164a565b90508181036060830152611715818461151a565b905095945050505050565b600060208201905061173560008301846112ec565b92915050565b61174481611416565b82525050565b600060208201905061175f600083018461173b565b92915050565b600080fd5b600080fd5b611778826115df565b810181811067ffffffffffffffff8211171561179757611796610fdf565b5b80604052505050565b60006117aa61135d565b90506117b6828261176f565b919050565b600067ffffffffffffffff8211156117d6576117d5610fdf565b5b6117df826115df565b9050602081019050919050565b82818337600083830152505050565b600061180e611809846117bb565b6117a0565b90508281526020810184848401111561182a5761182961176a565b5b6118358482856117ec565b509392505050565b600082601f83011261185257611851611765565b5b81356118628482602086016117fb565b91505092915050565b60006020828403121561188157611880611367565b5b600082013567ffffffffffffffff81111561189f5761189e61136c565b5b6118ab8482850161183d565b91505092915050565b60006118bf82610fd4565b6118c98185610eea565b93506118d98185602086016115b5565b6118e2816115df565b840191505092915050565b6000608082019050611902600083018761173b565b61190f60208301866112ec565b818103604083015261192181856118b4565b905061193060608301846112ec565b95945050505050565b600061194482610f67565b915061194f83610f67565b925082820390508181111561196757611966610f71565b5b92915050565b7f4e487b7100000000000000000000000000000000000000000000000000000000600052603260045260246000fd5b7f4f6e6c79206f776e65722063616e2063616c6c20746869732066756e6374696f60008201527f6e00000000000000000000000000000000000000000000000000000000000000602082015250565b60006119f8602183610eea565b9150611a038261199c565b604082019050919050565b60006020820190508181036000830152611a27816119eb565b9050919050565b7f4e6f2066756e647320746f207769746864726177000000000000000000000000600082015250565b6000611a64601483610eea565b9150611a6f82611a2e565b602082019050919050565b60006020820190508181036000830152611a9381611a57565b9050919050565b600081905092915050565b6000611ab2600083611a9a565b9150611abd826112fb565b600082019050919050565b6000611ad382611aa5565b9150819050919050565b7f5769746864726177616c206661696c6564000000000000000000000000000000600082015250565b6000611b13601183610eea565b9150611b1e82611add565b602082019050919050565b60006020820190508181036000830152611b4281611b06565b9050919050565b6000604082019050611b5e60008301856112ec565b611b6b60208301846112ec565b9392505050565b6000606082019050611b8760008301866112ec565b8181036020830152611b9981856118b4565b9050611ba860408301846112ec565b949350505050565b7f446f6e6174696f6e20696e646578206f7574206f6620626f756e647300000000600082015250565b6000611be6601c83610eea565b9150611bf182611bb0565b602082019050919050565b60006020820190508181036000830152611c1581611bd9565b905091905056fea2646970667358221220e40d53ee9fde0c1e1e7488b999f01b9b7d5281b52000450f3a2e4703efa9acdd64736f6c634300081b0033",
  "linkReferences": {},
  "deployedLinkReferences": {}
}